:100000000C9434000C9451000C9451000C94510049
:100010000C9451000C94FF030C9451000C940203B7
:100020000C9451000C9451000C9451000C9451000C
:100030000C9451000C9451000C9451000C945100FC
:100040000C9451000C9451000C94C4020C94510077
:100050000C9451000C9451000C9451000C945100DC
:100060000C9451000C94510011241FBECFEFD8E026
:10007000DEBFCDBF11E0A0E0B1E0EEE4F0E102C0F0
:1000800005900D92A832B107D9F714E0A8E2B1E0CB
:1000900001C01D92A137B107E1F70E9492040C94B0
:1000A00025080C940000519A50981092C50082E2E5
:1000B0008093C400E0ECF0E0808182608083E1EC1A
:1000C000F0E080818061808380818068808380818E
:1000D00088608083E2ECF0E08081886080838081AA
:1000E000866080830895019739F0880F991F880FE3
:1000F000991F02970197F1F708958091C00087FF3B
:10010000FCCF8091C60008959091C00095FFFCCF70
:100110008093C6000895CF93DF93EC0189918823E3
:1001200019F00E948400FACFDF91CF910895CF9308
:10013000DF938BE391E090935C0180935B01C0912E
:100140005B01D0915C010E947D0088838A3031F090
:100150002196D0935C01C0935B01F1CF8BE391E0DA
:10016000DF91CF9108959FB7F89410922B01809161
:100170002B018A3078F4E0912B01F0E0EE0FFF1FA5
:10018000E35AFB4F1182108280912B018F5F809385
:100190002B01EDCF80917A008F7780937A0080E8F1
:1001A00080BF8FE380937E0080917F008360809387
:1001B0007F00809164008068809364008091640077
:1001C0008460809364008091640080628093640006
:1001D00080916400886080936400559A259A9FBF3F
:1001E00083E18093B30080917000826080937000FF
:1001F0008091B00082608093B0008091B1008260F5
:100200008093B10080916D00846080936D00809137
:1002100068008460809368000E9453007894089579
:10022000AF92BF92CF92DF92EF92FF920F931F9304
:10023000CF93DF9310922801EDE5F3E001900020C9
:10024000E9F73197ED55F340ADE5B3E042E050E01A
:1002500080E090E0E12CF12C20E030E000E010E0C4
:100260008E179F0709F4E1C06C916337C9F40296B9
:1002700009F4DBC0FC01E35AFC4FDF010D900020C4
:10028000E9F79D01215031096901CE1ADF0AEC011D
:1002900000E010E0C80ED91E5AE0E52EF12C1BC07C
:1002A000633641F0603741F0623741F06B3339F427
:1002B0001C9205C08A0103C09A0101C07A0101960F
:1002C00011964F5F5F4FCCCFFE01E35AFC4F208168
:1002D00021962C3221F0CC15DD05B0F33CC0108204
:1002E0000115110569F4835A9C4F0E94DB04609349
:1002F00008017093090180930A0190930B0127C0B4
:100300000130110569F4835A9C4F0E94DB0460930D
:100310003701709338018093390190933A0117C0E7
:1003200002301105A1F4835A9C4F0E94BD04B7010D
:100330000E94A904CB01AA2797FDA095BA2F80930C
:10034000040190930501A0930601B09307010F5F8C
:100350001F4FCE01C0CF0330110561F4835A9C4F6B
:100360000E94DB04609300017093010180930201FD
:1003700090930301C0900001D0900101E090020130
:10038000F0900301009104011091050120910601F4
:100390003091070140913701509138016091390146
:1003A00070913A018091080190910901A0910A0190
:1003B000B0910B01E6E0EF93E0E4EF931F92E8E0E9
:1003C000EF931F92E1E0EF93FF92EF92DF92CF92D3
:1003D0003F932F931F930F937F936F935F934F934D
:1003E000BF93AF939F938F938CE091E09F938F93F4
:1003F0008DE593E09F938F930E9444056DB77EB780
:10040000665E7F4F0FB6F8947EBF0FBE6DBF8DE561
:1004100093E0DF91CF911F910F91FF90EF90DF90CC
:10042000CF90BF90AF900C948B000115110509F48B
:10043000A0C02115310509F49CC0E114F10409F4B0
:1004400098C0F901E35AFC4FEF0109900020E9F749
:100450002197CE1BDF0B10922801C901C20FD31FB9
:100460002C173D07F8F4F901E35AFC4F4081D901FC
:1004700011966D014C32A1F41082A090280121E068
:100480002A0D20932801B12C835A9C4F0E94BD0451
:10049000F501EE0FFF1FE35AFB4F91838083C601E6
:1004A0009601DECFC091280121E02C0F2093280176
:1004B000D0E0835A9C4F0E94BD04FE01EE0FFF1F47
:1004C000E35AFB4F91838083D801A35ABC4FFD01AF
:1004D00001900020E9F73197EA1BFB0BE0932F0115
:1004E000C701835A9C4F0E94BD0480932E01F8944B
:1004F000E12CF12C30E2D32E80912E0190E0E81611
:10050000F906F0F4E80180912F019801280F311DC0
:10051000C217D30788F48BB18D258BB9FE01E35A3E
:10052000FC4FE081EE0FFF0BE350FC4F8081918187
:100530000E9473002196E7CF3FEFE31AF30ADCCF66
:100540005D9810922B0180912B018A3078F4E09114
:100550002B01F0E0EE0FFF1FE35AFB4F11821082D8
:1005600080912B018F5F80932B01EDCF10922A0198
:100570007894DF91CF911F910F91FF90EF90DF90D2
:10058000CF90BF90AF9008951F920F920FB60F9229
:1005900011242F933F934F935F936F937F938F9388
:1005A0009F93AF93BF93EF93FF938091C600E09129
:1005B0002A0191E09E0F90932A01F0E0E35AFC4F4C
:1005C0008083803471F4E0912A0181E08E0F809362
:1005D0002A01F0E0E35AFC4F10820E9410011092B1
:1005E0002A01FF91EF91BF91AF919F918F917F91E0
:1005F0006F915F914F913F912F910F900FBE0F9090
:100600001F9018951F920F920FB60F9211242F93DF
:100610003F934F935F936F937F938F939F93AF938A
:10062000BF93EF93FF93F894809131019091320141
:100630000196909332018093310180913301909122
:100640003401A0913501B09136010196A11DB11D73
:100650008093330190933401A0933501B093360118
:100660008091330190913401A0913501B091360110
:10067000813A9648A140B10558F08AE00E94840072
:10068000109233011092340110923501109236010C
:100690007894FF91EF91BF91AF919F918F917F914E
:1006A0006F915F914F913F912F910F900FBE0F90DF
:1006B0001F901895AF92BF92CF92DF92EF92FF9268
:1006C0000F931F93CF93DF9383E60E9484008AE306
:1006D0000E948400C0E0D0E000E010E07AE0C72E85
:1006E000D12C8091280190E0081719075CF520E0D3
:1006F00030E0F801EE0FFF1FE35AFE4FD901AA0FB9
:10070000BB1FA35ABB4F8D919C91A080B180B601B5
:100710000E9495047B01C501B6010E949504E61A6A
:10072000F70A83E0E816F10438F400FF66C080E3BE
:10073000820F0E94840061C02F5F3F4F2A30310535
:10074000E9F645C08BE30E94840080E70E948400A4
:100750008AE30E94840000E010E04AE0D42E0C17E7
:100760001D072CF57801EE0CFF1CF701E35AFB4F37
:10077000808191814AE06DE573E09C01D29EC001C9
:10078000D39E900D11240E9402058DE593E00E94F6
:100790008B000F5F1F4F0C171D071CF48CE20E948B
:1007A0008400F701E35AFB4F11821082D8CF80E416
:1007B0000E94840010922801DF91CF911F910F9128
:1007C000FF90EF90DF90CF90BF90AF9008957E01A3
:1007D0003FEFE31AF30A80819181CC0FDD1FC35AEA
:1007E000DB4F9983888300FF04C08FE28E0D0E9447
:1007F00084000F5F1F4FE70174CF7E01FACF1F9275
:100800000F920FB60F9211242F933F934F935F9344
:100810006F937F938F939F93AF93BF93EF93FF93C8
:10082000F8948091310190913201099708F460C0E9
:1008300080913101909132018034964008F058C087
:10084000E091280181E08E0F80932801F0E08091F3
:10085000310190913201EE0FFF1FE35AFE4F918359
:100860008083809128014091310150913201809123
:10087000040190910501A0910601B091070160E08B
:1008800070E084179507A607B70790F540912801F7
:100890008091080190910901A0910A01B0910B018A
:1008A00050E060E070E0481759076A077B07F0F0F6
:1008B000409128018091370190913801A091390130
:1008C000B0913A0150E060E070E084179507A60708
:1008D000B70760F09091290180912801981302C018
:1008E0000E945A03809128018093290110922801C7
:1008F0001092320110923101109285001092840002
:100900007894FF91EF91BF91AF919F918F917F91DB
:100910006F915F914F913F912F910F900FBE0F906C
:100920001F9018950E94B300FFCFAA1BBB1B51E17B
:1009300007C0AA1FBB1FA617B70710F0A61BB70B4F
:10094000881F991F5A95A9F780959095BC01CD01F4
:10095000089597FB072E16F4009407D077FD09D071
:100960000E94950407FC05D03EF4909581959F4F19
:100970000895709561957F4F0895FC018827992708
:10098000E89421912032E9F3293010F02E30C8F399
:100990002B3241F02D3239F4689404C00E942205B4
:1009A000820F911D219120532A30C0F31EF490959F
:1009B00081959F4F08951F93FC0199278827BC01BB
:1009C000E89411911032E9F3193010F01E30C8F399
:1009D0001B3251F01D3249F4689406C00E940D0587
:1009E000610F711D811D911D119110531A30B0F3CB
:1009F0003EF490958095709561957F4F8F4F9F4FF6
:100A00001F910895BB274A3031F4992322F4BDE2A7
:100A1000909581959F4F0C942B05592F482F372F78
:100A2000262F660F771F881F991F660F771F881F55
:100A3000991F620F731F841F951F660F771F881FF2
:100A4000991F08957AE0979F902D879F802D910D93
:100A500011240895BB27FB015527AA27880F991F4A
:100A6000AA1FA41710F0A41B83955051B9F7A05DDD
:100A7000AA3308F0A95DA193009779F7B111B1935A
:100A80001192CB010C944E07AEE0B0E0EAE4F5E041
:100A90000C94FC070D891E8986E08C831A830983D8
:100AA0008FEF9FE79E838D83AE01475E5F4F6F8917
:100AB000788DCE0101960E946605EF81F885E00FE2
:100AC000F11F10822E96E4E00C941808ACE0B0E020
:100AD000ECE6F5E00C94EE077C016B018A01FC0169
:100AE00017821682838181FFBDC1CE0101964C0120
:100AF000F7019381F60193FD859193FF81916F0139
:100B0000882309F4ABC1853239F493FD859193FFB5
:100B100081916F01853229F4B70190E00E945E0750
:100B2000E7CF512C312C20E02032A0F48B3269F039
:100B300030F4803259F0833269F420612CC08D3258
:100B400039F0803339F4216026C02260246023C04C
:100B5000286021C027FD27C030ED380F3A3078F4E7
:100B600026FF06C0FAE05F9E300D1124532E13C0FD
:100B70008AE0389E300D1124332E20620CC08E3254
:100B800021F426FD6BC1206406C08C3611F4206868
:100B900002C0883641F4F60193FD859193FF81915F
:100BA0006F018111C1CF982F9F7D9554933028F408
:100BB0000C5F1F4FFFE3F9830DC0833631F083379D
:100BC00071F0833509F05BC022C0F8018081898310
:100BD0000E5F1F4F44244394512C540115C038011B
:100BE000F2E06F0E711CF801A080B18026FF03C0F7
:100BF000652D70E002C06FEF7FEFC5012C870E946A
:100C000043072C0183012C852F77222E17C0380132
:100C1000F2E06F0E711CF801A080B18026FF03C0C6
:100C2000652D70E002C06FEF7FEFC5012C870E9439
:100C300038072C012C852068222E830123FC1BC041
:100C4000832D90E048165906B0F4B70180E290E099
:100C50000E945E073A94F4CFF50127FC859127FEA8
:100C600081915F01B70190E00E945E0731103A94D4
:100C7000F1E04F1A51084114510471F7E5C0843670
:100C800011F0893639F5F80127FF07C060817181BD
:100C9000828193810C5F1F4F08C06081718188271A
:100CA00077FD8095982F0E5F1F4F2F76B22E97FFFE
:100CB00009C090958095709561957F4F8F4F9F4F9C
:100CC0002068B22E2AE030E0A4010E949007A82EEE
:100CD000A81844C0853729F42F7EB22E2AE030E0D0
:100CE00025C0F22FF97FBF2E8F36C1F018F488355A
:100CF00079F0B4C0803719F0883721F0AFC02F2FBA
:100D00002061B22EB4FE0DC08B2D8460B82E09C0B8
:100D100024FF0AC09F2F9660B92E06C028E030E05D
:100D200005C020E130E002C020E132E0F801B7FE6A
:100D300007C060817181828193810C5F1F4F06C063
:100D40006081718180E090E00E5F1F4FA4010E94DE
:100D50009007A82EA818FB2DFF77BF2EB6FE0BC05C
:100D60002B2D2E7FA51450F4B4FE0AC0B2FC08C08F
:100D70002B2D2E7E05C07A2C2B2D03C07A2C01C082
:100D8000752C24FF0DC0FE01EA0DF11D808180331A
:100D900011F4297E09C022FF06C07394739404C025
:100DA000822F867809F0739423FD13C020FF06C0BC
:100DB0005A2C731418F4530C5718732C731468F4CA
:100DC000B70180E290E02C870E945E0773942C8527
:100DD000F5CF731410F4371801C0312C24FF12C062
:100DE000B70180E390E02C870E945E072C8522FFEC
:100DF00017C021FF03C088E590E002C088E790E0BB
:100E0000B7010CC0822F867859F021FD02C080E224
:100E100001C08BE227FD8DE2B70190E00E945E07E2
:100E2000A51438F4B70180E390E00E945E075A945D
:100E3000F7CFAA94F401EA0DF11D8081B70190E08B
:100E40000E945E07A110F5CF332009F451CEB701FF
:100E500080E290E00E945E073A94F6CFF701868127
:100E6000978102C08FEF9FEF2C96E2E10C940A0865
:100E7000FC010590615070400110D8F78095909565
:100E80008E0F9F1F0895FC0161507040019001106A
:100E9000D8F7809590958E0F9F1F0895DC01FC0177
:100EA000672F71917723E1F7329704C07C916D939E
:100EB00070836291AE17BF07C8F308950F931F9315
:100EC000CF93DF93182F092FEB018B8181FD03C096
:100ED0008FEF9FEF20C082FF10C04E815F812C8179
:100EE0003D81421753077CF4E881F9819F012F5F10
:100EF0003F4F39832883108306C0E885F985812F09
:100F00000995892B29F72E813F812F5F3F4F3F8322
:100F10002E83812F902FDF91CF911F910F910895F4
:100F2000FA01AA27283051F1203181F1E8946F931A
:100F30006E7F6E5F7F4F8F4F9F4FAF4FB1E03ED0C0
:100F4000B4E03CD0670F781F891F9A1FA11D680F5E
:100F5000791F8A1F911DA11D6A0F711D811D911D91
:100F6000A11D20D009F468943F912AE0269F112406
:100F70003019305D3193DEF6CF010895462F47706A
:100F8000405D4193B3E00FD0C9F7F6CF462F4F70C5
:100F9000405D4A3318F0495D31FD4052419302D023
:100FA000A9F7EACFB4E0A6959795879577956795C9
:100FB000BA95C9F700976105710508959B01AC01C9
:100FC0000A2E06945795479537952795BA95C9F7F0
:100FD000620F731F841F951FA01D08952F923F92CB
:100FE0004F925F926F927F928F929F92AF92BF9239
:100FF000CF92DF92EF92FF920F931F93CF93DF93E5
:10100000CDB7DEB7CA1BDB0B0FB6F894DEBF0FBE41
:10101000CDBF09942A88398848885F846E847D848E
:101020008C849B84AA84B984C884DF80EE80FD8090
:101030000C811B81AA81B981CE0FD11D0FB6F89406
:0E104000DEBF0FBECDBFED010895F894FFCFC7
:10104E00EC13000010270000E8030000763A256C30
:10105E00752C256C752C256C752C256C752C2564C2
:08106E002C25642C25644000D0
:00000001FF
